S0120000466F7572496E41526F772E7372656346
S113000045C0000061C000005FC000005DC000008A
S1130010A2C5000059C0000057C0000055C0000030
S113002053C0000051C000004FC000004DC000008C
S11300304BC00000DCC2000047C0000045C0000007
S113004043C0000041C000003FC000003DC00000AC
S11300503BC0000039C0000037C0000035C00000BC
S113006033C0000031C000002FC000002DC00000CC
S11300702BC0000029C0000027C0000025C00000DC
S113008023C0000021C000001FC0000011241FBEB7
S1130090CFEFD0E4DEBFCDBF11E0A0E0B1E0ECE9EA
S11300A0F2E100E00BBF02C007900D92A232B1074B
S11300B0D9F721E0A2E2B1E001C01D92AD39B20747
S11300C0E1F799D50C944C099BCF00000000000087
S11300D0000000000000000000000000000000001C
S11300E0000000000000000000000000000000000C
S11300F000000000000000000000000000000000FC
S113010000000000000000000000000000000000EB
S11303E00000089560E86BB9000000000000000000
S11303F060E06BB90000089520E82BB9000020E00C
S11304002BB900000000089585B947984698419A91
S113041085E08A95F1F7000041988FE99FE0019704
S1130420F1F700C00000089585B9479A4698419AAB
S113043085E08A95F1F70000419887EC90E00197F8
S1130440F1F700C00000089570932701609326011E
S11304505093250140932401FC01E60FF71F86E326
S1130460808380E3818381E090E090932B018093EB
S11304702A01089581E0C8CF0895CF93DF939C01AA
S1130480EB01FC01E60FF71F91819E3649F488EADF
S1130490BBDFD0932301C09322018C2F8E5F08C051
S11304A0943729F4C901D0DF8C2F815001C0862FE5
S11304B0DF91CF910895EF92FF920F931F93CF9303
S11304C0DF937B018A01813138F0809126018B55BD
S11304D090912201891B98DF1016110644F4E7015C
S11304E00E0D1F1D8991A0DFC017D107D9F7DF9129
S11304F0CF911F910F91FF90EF9008957894E1E8C8
S1130500F0E0808188608083808184608083EFE66E
S1130510F0E080818260808381E19AE79093890092
S11305208093880081E090E09093290180932801D2
S113053008950F931F93CF93DF938C01EB01809168
S11305402A0190912B01892B09F442C0E1E8F0E0E3
S113055080818B7F808310922B0110922A0110924C
S11305602901109228011C161D06B4F560E070E004
S1130570F801E60FF71F9081913541F4AE01C801EF
S11305807CDF80932C01682F70E00FC095B9479AE7
S11305904698419A85E08A95F1F7000041988FE9E1
S11305A09FE00197F1F700C000006F5F7F4F6C1769
S11305B07D07F4F280912A0190912B01892B91F00F
S11305C08091280190912901892B61F497DF0AC059
S11305D01C161D065CF206C080912A0190912B0125
S11305E0892BA1F7DF91CF911F910F9108951F924D
S11305F00F920FB60F9211240BB60F922F933F93C5
S11306004F935F936F937F938F939F93AF93BF9316
S1130610EF93FF93809100019091010101979093D2
S1130620010180930001009731F19F938F938FE133
S113063091E09F938F9389E391E09F938F9363D38A
S113064042E050E069E371E0809126019091270136
S113065032DF0F900F900F900F900F900F908091BA
S11306600001909101010A9731F404DF64E070E025
S113067084E091E05EDFFF91EF91BF91AF919F9194
S11306808F917F916F915F914F913F912F910F9037
S11306900BBE0F900FBE0F901F90189582EC87B978
S11306A08FEF84B98EE3B0DE8EE0AEDE82E0ACDEA6
S11306B081E0AACE0895CF93DF93EBE3F1E083EBDF
S11306C091E011821082138212821582148236966E
S11306D0E817F907B1F7C0E8D1E08EDE2197E9F712
S11306E0F4DCDF91CF9108954F925F926F927F92E5
S11306F08F929F92AF92BF92CF92DF92EF92FF922E
S11307000F931F93CF93DF93FC01EE0FFF1FDF01C5
S1130710A80FB91FAA0FBB1FA55CBE4F11967C93EF
S11307206E9313965C934E931297FD013583248345
S11307300F2EFBE3EF2EF1E0FF2EF02D0F2EFBE941
S1130740AF2EF1E0BF2EF02D6894772473F8512C6E
S11307506894662467F8412C6701F70102811381CC
S1130760872C952CC62DD42DCE01802391239093D4
S11307709C0180939B011816190614F433DE01C002
S11307803BDED595C795E1E08E1A910869F7F6012D
S113079000811181872C952CC62DD42DCE01802368
S11307A0912390939C0180939B011816190614F4CD
S11307B019DE01C021DED595C795E1E08E1A9108B6
S11307C069F7F60104811581C72CD52CC62DD42DCB
S11307D0CE018023912390939C0180939B01181652
S11307E0190614F4FFDD01C007DED595C795E1E0D5
S11307F0CE1AD10869F7F6E0EF0EF11CEA14FB04F7
S113080009F0AACF62DCDF91CF911F910F91FF9085
S1130810EF90DF90CF90BF90AF909F908F907F909C
S11308206F905F904F900895F999FECF92BD81BD6E
S113083060BDFA9AF99A0895F999FECF92BD81BDE7
S1130840F89A80B508950F931F93CF93DF93CDB794
S1130850DEB765970FB6F894DEBF0FBECDBF0ADED4
S113086019821A821B821C82FE01359686E0DF0102
S11308701D928A95E9F71B861C861D861E863A966C
S113088087E0DF011D928A95E9F78091310190910B
S11308903201A0913301B09134018A309105A10550
S11308A0B105C0F4BF93AF939F938F9389E091E018
S11308B09F938F938E010F5F1F4F1F930F9323D22C
S11308C06AE070E0C80135DE0FB6F894DEBF0FBEF3
S11308D0CDBF17C0BF93AF939F938F9389E091E0EF
S11308E09F938F938E01055F1F4F1F930F930BD21E
S11308F06BE070E0C8011DDE0FB6F894DEBF0FBEDA
S1130900CDBF88E091E08D87888F80912D019091F3
S11309102E01A0912F01B09130018A309105A105DB
S1130920B105C0F4BF93AF939F938F9385E191E09A
S11309309F938F938E010F5F1F4F1F930F93E3D1EC
S11309406BE070E0C801F5DD0FB6F894DEBF0FBEB2
S1130950CDBF17C0BF93AF939F938F9385E191E071
S11309609F938F938E01055F1F4F1F930F93CBD1DE
S11309706CE070E0C801DDDD0FB6F894DEBF0FBE99
S1130980CDBF65960FB6F894DEBF0FBECDBFDF9125
S1130990CF911F910F91089510923101109232015D
S11309A010923301109234018FEF90E045DF092E4D
S11309B0000CAA0BBB0B80932D0190932E01A093E6
S11309C02F01B09330013FCF08951092310110925E
S11309D03201109233011092340181E090E090933F
S11309E00301809302012FCF08950F931F938091E9
S11309F0310190913201A0913301B0913401BC01D5
S1130A00CD016F5F7F4F8F4F9F4F60933101709384
S1130A103201809333019093340100912D011091A0
S1130A202E0120912F013091300106171707280756
S1130A30390758F460932D0170932E0180932F0190
S1130A40909330018FEF90E0EFDE6091310170916F
S1130A503201809133019091340125E030E040E08F
S1130A6050E02FD1672B682B692B61F48091020130
S1130A70909103018730910529F001969093030129
S1130A8080930201E0DE1F910F910895809102018D
S1130A909091030108979CF488E090E02FEF39EFE0
S1130AA040E0215030404040E1F700C00000019791
S1130AB02091020130910301281739077CF308952E
S1130AC04091020150910301141615062CF080E0A8
S1130AD00895843621F4089520E030E080E0865FB4
S1130AE02F5F3F4F24173507A1F708954091020166
S1130AF050910301141615062CF080E50895811118
S1130B0004C0089520E030E080E58A502F5F3F4F15
S1130B1024173507A1F7089580913101909132018E
S1130B20A0913301B091340140912D0150912E01D7
S1130B3060912F0170913001481759076A077B07AC
S1130B4040F480932D0190932E01A0932F01B09334
S1130B5030013BCF08951F920F920FB60F921124CC
S1130B600BB60F922F933F934F935F936F937F93A3
S1130B708F939F93AF93BF93EF93FF939CDD2AE0F2
S1130B8030E04AE050E06AE070E0809135019091F5
S1130B903601AADD009B1AC080913701909138017B
S1130BA0892B29F010923801109237010FC081E08F
S1130BB090E09093380180933701809135019091B2
S1130BC036010E9711F411DF01C0A6DF8BB38BBB86
S1130BD0FF91EF91BF91AF919F918F917F916F9111
S1130BE05F914F913F912F910F900BBE0F900FBECD
S1130BF00F901F901895F89451DDCEDEE8E6F0E0F2
S1130C008081816080837894EBE6F0E0808181606C
S1130C10808380E88AB95F9800913501109136018C
S1130C20003111050CF03CC08091370190913801DE
S1130C30892B91F70F5F1F4F08C080913701909166
S1130C403801892B49F70F5F1F4FE8012197D09393
S1130C503601C09335014ADFF82E32DF4F2D50E0C4
S1130C60682F70E020E030E0CE013EDD0FDF20E0B1
S1130C7030E040E050E060E070E0CE0135DD80918E
S1130C80370190913801892BB9F02AE030E04AE02D
S1130C9050E06AE070E0CE0127DD003111056CF20E
S1130CA08091370190913801892B09F0B5CF1092CA
S1130CB0360110923501B0CF003111050CF4C3CFC9
S1130CC0F6CFA1E21A2EAA1BBB1BFD010DC0AA1F61
S1130CD0BB1FEE1FFF1FA217B307E407F50720F0A1
S1130CE0A21BB30BE40BF50B661F771F881F991F1C
S1130CF01A9469F760957095809590959B01AC0165
S1130D00BD01CF0108950F931F93CF93DF93CDB708
S1130D10DEB72E970FB6F894DEBF0FBECDBF0D8998
S1130D201E8986E08C831A8309838FEF9FE79E8355
S1130D308D83AE01475E5F4F6F89788DCE0101963A
S1130D4011D02F813885F801E20FF31F10822E96FF
S1130D500FB6F894DEBF0FBECDBFDF91CF911F91C8
S1130D600F9108952F923F924F925F926F927F92CC
S1130D708F929F92AF92BF92CF92DF92EF92FF92A7
S1130D800F931F93CF93DF93CDB7DEB72C970FB696
S1130D90F894DEBF0FBECDBF7C016B018A01FC015C
S1130DA017821682838181FFB0C1CE0101964C0166
S1130DB0F7019381F60193FD859193FF81916F0172
S1130DC0882309F49EC1853239F493FD859193FFFC
S1130DD081916F01853221F4B70190E0C7D1E8CF4A
S1130DE0512C312C20E02032A0F48B3269F030F405
S1130DF0803259F0833269F420612CC08D3239F08D
S1130E00803339F4216026C02260246023C0286026
S1130E1021C027FD27C030ED380F3A3078F426FF83
S1130E2006C0FAE05F9E300D1124532E13C08AE0F1
S1130E30389E300D1124332E20620CC08E3221F4E2
S1130E4026FD5FC1206406C08C3611F4206802C000
S1130E50883641F4F60193FD859193FF81916F01EA
S1130E608111C1CF982F9F7D9554933028F40C5F46
S1130E701F4FFFE3F9830DC0833631F0833771F0E0
S1130E80833509F057C021C0F801808189830E5F42
S1130E901F4F44244394512C540114C03801F2E0F0
S1130EA06F0E711CF801A080B18026FF03C0652D70
S1130EB070E002C06FEF7FEFC5012C874CD12C018D
S1130EC083012C852F77222E16C03801F2E06F0E95
S1130ED0711CF801A080B18026FF03C0652D70E06D
S1130EE002C06FEF7FEFC5012C872AD12C012C851E
S1130EF02068222E830123FC19C0832D90E048161C
S1130F005906A0F4B70180E290E030D13A94F5CFCD
S1130F10F50127FC859127FE81915F01B70190E0DF
S1130F2025D131103A94F1E04F1A5108411451047B
S1130F3079F7DEC0843611F0893631F5F80127FFE0
S1130F4007C060817181828193810C5F1F4F08C04B
S1130F5060817181072E000C880B990B0E5F1F4F67
S1130F602F76722E97FF09C09095809570956195A4
S1130F707F4F8F4F9F4F2068722E2AE030E0A401EC
S1130F802DD1A82EA81843C0853729F42F7EB22E60
S1130F902AE030E025C0F22FF97FBF2E8F36C1F052
S1130FA018F4883579F0ADC0803719F0883721F00E
S1130FB0A8C02F2F2061B22EB4FE0DC08B2D8460EB
S1130FC0B82E09C024FF0AC09F2F9660B92E06C010
S1130FD028E030E005C020E130E002C020E132E04A
S1130FE0F801B7FE07C060817181828193810C5F33
S1130FF01F4F06C06081718180E090E00E5F1F4F3B
S1131000A401ECD0A82EA818FB2DFF777F2E76FE26
S11310100BC0372D3E7FA51450F474FE0AC072FC39
S113102008C0372D3E7E05C0BA2C372D03C0BA2C1C
S113103001C0B52C34FF0DC0FE01EA0DF11D808105
S1131040803311F4397E09C032FF06C0B394B394DF
S113105004C0832F867809F0B39433FD12C030FFA7
S113106006C05A2CB31418F4530C5B18B32CB314E5
S113107060F4B70180E290E03C8778D0B3943C857B
S1131080F6CFB31410F43B1801C0312C34FF11C057
S1131090B70180E390E03C8769D03C8532FF16C0FD
S11310A031FD03C088E790E002C088E590E0B70115
S11310B00CC0832F867851F031FF02C08BE201C04F
S11310C080E237FD8DE2B70190E050D0A51430F4F2
S11310D0B70180E390E04AD05A94F8CFAA94F4017F
S11310E0EA0DF11D8081B70190E040D0A110F6CF48
S11310F0332009F45DCEB70180E290E037D03A9412
S1131100F7CFF7018681978102C08FEF9FEF2C966E
S11311100FB6F894DEBF0FBECDBFDF91CF911F9104
S11311200F91FF90EF90DF90CF90BF90AF909F9082
S11311308F907F906F905F904F903F902F90089585
S1131140FC010590615070400110D8F7809590958E
S11311508E0F9F1F0895FC01615070400190011093
S1131160D8F7809590958E0F9F1F08950F931F9326
S1131170CF93DF93FB01238121FD03C08FEF9FEF0A
S113118028C022FF16C04681578124813581421729
S1131190530744F4A081B1819D012F5F3F4F3183F8
S11311A020838C93268137812F5F3F4F378326839B
S11311B010C0EB01092F182F0084F185E02D09954B
S11311C0892BE1F68E819F8101969F838E83812FE7
S11311D0902FDF91CF911F910F910895FA01AA27C3
S11311E0283051F1203181F1E8946F936E7F6E5F66
S11311F07F4F8F4F9F4FAF4FB1E03ED0B4E03CD014
S1131200670F781F891F9A1FA11D680F791F8A1FF6
S1131210911DA11D6A0F711D811D911DA11D20D05D
S113122009F468943F912AE0269F11243019305D17
S11312303193DEF6CF010895462F4770405D419308
S1131240B3E00FD0C9F7F6CF462F4F70405D4A3355
S113125018F0495D31FD4052419302D0A9F7EACF1D
S1131260B4E0A6959795879577956795BA95C9F74C
S113127000976105710508959B01AC010A2E06943F
S11312805795479537952795BA95C9F7620F731FF8
S10F1290841F951FA01D0895F894FFCF43
S113129C3C000100596179210053636F72653A2057
S11312AC2564516E0048692D53636F72653A20258D
S10512BC6400C8
S9030000FC
